S01F000050726F796563746F322D437573746F64696F32343230342E737265630B
S11300000C9434000C9451000C9451000C94510045
S11300100C9451000C9451000C9451000C94C9049C
S11300200C9451000C9451000C9451000C94510008
S11300300C9451000C9451000C9451000C945100F8
S11300400C9451000C9451000C944D060C945100E6
S11300500C9451000C9451000C9451000C945100D8
S11300600C9451000C94510011241FBECFEFD8E022
S1130070DEBFCDBF12E0A0E0B1E0E4E3F3E102C0F3
S113008005900D92AC33B107D9F723E0ACE3B2E0AD
S113009001C01D92A130B207E1F70E945B040C94E9
S11300A098090C940000ECE7F0E080818064808380
S11300B080818F77808380818F7D8083EAE7F0E081
S11300C080818760808380818068808308958F70B9
S11300D0ECE7F0E09081907F892B8083EAE7F0E001
S11300E080818064808380917A0086FDFCCF80913A
S11300F07800909179000895F999FECF92BD81BD61
S113010060BD8FB384608FBB8FB382608FBB089553
S1130110F999FECF92BD81BD8FB381608FBB80B54D
S113012008959BB1937F9BB9813019F49BB194607E
S11301309BB9823019F49BB198609BB9833019F450
S11301408BB18C608BB9089529B1482F30E0082E0B
S113015002C0359527950A94E2F720FD28C02FEFB9
S113016036E761E0215030406040E1F700C0000014
S113017029B130E0B90102C0759567958A95E2F717
S113018060FD17C089B190E0042E02C09595879553
S11301900A94E2F780FFF6CF7FEF86E791E0715093
S11301A080409040E1F700C0000081E0089580E0C5
S11301B0089580E008954F925F926F927F92AF927C
S11301C0BF92CF92DF92EF92FF920F931F93CF9340
S11301D0DF93EB010E946700BC0180E090E00E9485
S11301E05D08A62EB72EC82ED92EE880F9800A8184
S11301F01B812E2D3F2D402F512F0E944A072B018A
S11302003C0120E030E0A9010E94B707882324F4D0
S113021077FA709477F8709420E030E040E051E48D
S1130220C301B2010E940F09181664F48A2D9B2D94
S1130230AC2DBD2D88839983AA83BB83EA2CFB2C28
S11302400C2D1D2D6E2D7F2D802F912FDF91CF91A1
S11302501F910F91FF90EF90DF90CF90BF90AF90E0
S11302607F906F905F904F9008954F925F926F923E
S11302707F92AF92BF92CF92DF92EF92FF920F9351
S11302801F93CF93DF93CDB7DEB728970FB6F894BB
S1130290DEBF0FBECDBF29013A01ED82FE820F837E
S11302A018870E944A0769837A838B839C83A601FB
S11302B09501698D7A8D8B8D9C8D0E944A079B01D7
S11302C0AC0169817A818B819C810E9414096983C4
S11302D07A838B839C83A3019201C801B7010E9496
S11302E04A079B01AC0169817A818B819C810E94C0
S11302F0BC079B01AC01C601B5010E944B072896BF
S11303000FB6F894DEBF0FBECDBFDF91CF911F9122
S11303100F91FF90EF90DF90CF90BF90AF907F90C0
S11303206F905F904F9008957F928F929F92AF92BB
S1130330BF92CF92DF92EF92FF920F931F93CF93CE
S1130340DF9360E071E080E00E94DB000F2EF3E4B5
S11303509F2EF02D9F920F2EFAE27F2EF02D7F928A
S11303601F921F920F2EA12CB12CF0E2CF2EF1E49C
S1130370DF2EF02DE12C10ECF12E0FE714E420E039
S113038030E0A9010E9435010F900F900F900F905B
S1130390C0E1D1E0688379838A839B8364E071E060
S11303A081E00E94DB009F920F2EF4E38F2EF02D4C
S11303B08F921F921F920F2EA12CB12CF4EBCF2EF3
S11303C0F2E4DF2EF02D20E030E0A9010E94350197
S11303D00F900F900F900F906C837D838E839F837B
S11303E068E071E082E00E94DB009F927F921F929E
S11303F01F920F2EA12CB12CF0E2CF2EF1E4DF2EB0
S1130400F02D20E030E0A9010E9435010F900F90FB
S11304100F900F90688779878A879B876CE071E0DB
S113042083E00E94DB009F928F921F921F920F2EF7
S1130430A12CB12CF4EBCF2EF2E4DF2EF02D20E032
S113044030E0A9010E9435010F900F900F900F909A
S11304506C877D878E879F87488159816A817B81DC
S113046080E00E9444054C815D816E817F8181E042
S11304700E944405488559856A857B8582E00E94EF
S113048044054C855D856E857F8583E00E94440527
S11304902FEF89EF90E0215080409040E1F700C0B9
S11304A00000DF91CF911F910F91FF90EF90DF90AB
S11304B0CF90BF90AF909F908F907F900895EF92D0
S11304C0FF920F931F93CF93E82EF12CEE0CFF1C99
S11304D0EE0CFF1CC0E015C00C2F10E0F801EE0F6D
S11304E0FF1FEE0FFF1FE05FFE4F6081718182816D
S11304F093810E942E08C8018E0D9F1D0E947C00CE
S1130500CF5FC43048F3CF911F910F91FF90EF90CC
S113051008957F928F929F92AF92BF92CF92DF9273
S1130520EF92FF920F931F93CF93DF9360E071E0FC
S113053080E00E94DB000F2EF3E49F2EF02D9F92AB
S11305400F2EFAE27F2EF02D7F921F921F920F2E14
S1130550A12CB12CF0E2CF2EF1E4DF2EF02DE12C12
S113056010ECF12E0FE714E420E030E0A9010E9422
S113057035010F900F900F900F90C0E1D1E0688388
S113058079838A839B8364E071E081E00E94DB00CD
S11305909F920F2EF4E38F2EF02D8F921F921F92B5
S11305A00F2EA12CB12CF4EBCF2EF2E4DF2EF02D84
S11305B020E030E0A9010E9435010F900F900F90C8
S11305C00F906C837D838E839F8368E071E082E06B
S11305D00E94DB009F927F921F921F920F2EA12CEC
S11305E0B12CF0E2CF2EF1E4DF2EF02D20E030E04C
S11305F0A9010E9435010F900F900F900F9068870A
S113060079878A879B876CE071E083E00E94DB0036
S11306109F928F921F921F920F2EA12CB12CF4EB5C
S1130620CF2EF2E4DF2EF02D20E030E0A9010E946D
S113063035010F900F900F900F906C877D878E87F8
S11306409F87488159816A817B8180E00E944405AB
S11306504C815D816E817F8181E00E9444054885E3
S113066059856A857B8582E00E9444054C855D85B9
S11306706E857F8583E00E94440560E28CE592E00C
S11306800E94DC068823F9F043E050E065E571E060
S11306908CE592E00E948A09892BA9F480915F027B
S11306A0813388F0853378F481530E945F0289E5B1
S11306B091E00E94A20680915F020E949B068FE552
S11306C091E00E94A2062FEF89EF90E02150804034
S11306D09040E1F700C00000DF91CF911F910F918E
S11306E0FF90EF90DF90CF90BF90AF909F908F904E
S11306F07F900895EF92FF921F93CF93DF93E82E9C
S1130700F12CEE0CFF1CEE0CFF1C10E024C0C12FDA
S1130710D0E0CE018E0D9F1D0E9488008F3F49F0CE
S1130720682F70E080E090E00E945D08AB01BC019E
S113073004C040E050E064EB72E4CC0FDD1FCC0F4A
S1130740DD1FC05FDE4F488359836A837B83812F1B
S11307500E9444051F5F1430D0F2DF91CF911F91A6
S1130760FF90EF900895CF9360E28CE392E00E94B3
S1130770DC06882309F49DC044E050E06CE671E097
S11307808CE392E00E948A09892BB1F480914002A3
S1130790813390F0853380F481530E947A0389E594
S11307A091E00E94A206809140020E949B0681E78C
S11307B091E00E94A2067DC06DE771E08CE392E0B7
S11307C00E948109892BD1F021C08C2F90E0880FE1
S11307D0991F880F991FFC01EF5BFE4F40815181E7
S11307E062817381FC01E05FFE4F40835183628329
S11307F073838C2F0E944405CF5F01C0C0E0C430D6
S113080020F385E891E00E94A20653C06AE971E0F2
S11308108CE392E00E948109892BD1F021C08C2FB6
S113082090E0880F991F880F991FFC01EF5CFE4F21
S11308304081518162817381FC01E05FFE4F4083FE
S11308405183628373838C2F0E944405CF5F01C060
S1130850C0E0C43020F380EA91E00E94A20629C0DF
S113086063EB71E08CE392E00E948109892BD1F063
S113087020C08C2F90E0880F991F880F991FFC01CE
S1130880EF5DFE4F4081518162817381FC01E05F25
S1130890FE4F40835183628373838C2F0E944405EF
S11308A0CF5F01C0C0E0C43020F389EB91E00E9427
S11308B0A206CF910895F8948AB18C608AB98AB15E
S11308C08F7C8AB98BB180638BB90E9453000E94DC
S11308D02F050E948606789481E00E9491008CEC9A
S11308E091E00E94A2068EEE91E00E94A20684E0AE
S11308F00E94A400882311F1809120018F5F8093CE
S11309002001843018F081E080932001809120013F
S11309100E94910080912001813029F48CEE91E0B5
S11309200E94A2060BC0823029F48FEF91E00E944E
S1130930A20604C083E192E00E94A20680912001F5
S11309408130A9F085E00E94A400811107C00FC086
S11309506FEFCE010E947C00219602C0C0E0D0E07F
S1130960C031D105A8F38AE292E00E94A2068091E8
S11309702001823041F0833049F0813009F0B7CF53
S11309800E949401B4CF0E948902B1CF0E94B303A4
S1130990AECF1F920F920FB60F9211242F933F9355
S11309A08F939F9380917C0290917D02892B31F4E7
S11309B085B18E6085B98BB180648BB9809151010A
S11309C090E020917C0230917D028217930719F404
S11309D085B18D7F85B98091520190E020917C0290
S11309E030917D028217930719F485B18B7F85B905
S11309F08091530190E020917C0230917D02821716
S1130A00930719F485B1877F85B98091540190E0EB
S1130A1020917C0230917D028217930719F48BB1E7
S1130A208F7B8BB980917C0290917D02019690938B
S1130A307D0280937C0280917C0290917D02803DB6
S1130A40974020F010927D0210927C029F918F912A
S1130A503F912F910F900FBE0F901F90189584B166
S1130A608E6084B98AB180648AB910928000109231
S1130A70810082E08093B0008093B10093E1909371
S1130A80B300809370000895CF92DF92EF92FF92AB
S1130A906A017B01813009F445C038F0823009F4E1
S1130AA07EC0833009F4B8C0F3C020E030E040E2F7
S1130AB051E4C701B6010E94B707882344F40F2EFE
S1130AC0C12CD12CF0E2EF2EF1E4FF2EF02D20E02A
S1130AD030E04AE253E4C701B6010E940F09181638
S1130AE044F40F2EC12CD12CFAE2EF2EF3E4FF2EA6
S1130AF0F02D20E030E044E353E4C701B6010E9446
S1130B00BC0720E030E048EC52E40E94140920E0E5
S1130B1030E048EC52E40E944B070E942E08609398
S1130B205101B6C020E030E044EB52E4C701B60105
S1130B300E94B707882344F40F2EC12CD12CF4EB68
S1130B40EF2EF2E4FF2EF02D20E030E044E353E4F6
S1130B50C701B6010E940F09181644F40F2EC12CC8
S1130B60D12CF4E3EF2EF3E4FF2EF02D20E030E05F
S1130B7044E353E4C701B6010E94BC0720E030E01F
S1130B8042E053E40E94140920E030E048EC52E4CF
S1130B900E944B070E942E086093520179C020E006
S1130BA030E040E251E4C701B6010E94B707882350
S1130BB044F40F2EC12CD12CF0E2EF2EF1E4FF2EE1
S1130BC0F02D20E030E04AE253E4C701B6010E9470
S1130BD00F09181644F40F2EC12CD12CFAE2EF2E73
S1130BE0F3E4FF2EF02D20E030E044E353E4C701AA
S1130BF0B6010E94BC0720E030E048EC52E40E94B9
S1130C00140920E030E048EC52E40E944B070E94B3
S1130C102E08609353013CC020E030E044EB52E4E2
S1130C20C701B6010E94B707882344F40F2EC12CD4
S1130C30D12CF4EBEF2EF2E4FF2EF02D20E030E087
S1130C4044E353E4C701B6010E940F09181644F4A3
S1130C500F2EC12CD12CF4E3EF2EF3E4FF2EF02D54
S1130C6020E030E044E353E4C701B6010E94BC072E
S1130C7020E030E042E053E40E94140920E030E038
S1130C8048EC52E40E944B070E942E0860935401E2
S1130C90FF90EF90DF90CF9008951F920F920FB6C0
S1130CA00F9211242F933F938F939F93EF93FF936E
S1130CB02091C60080EE820F8F3528F48091C00009
S1130CC085FD2093C6008091C00290E001968F7349
S1130CD09078992324F40197806C9F6F019630914A
S1130CE0BF02381741F0E091C002F0E0EF53FD4F2E
S1130CF020838093C002FF91EF919F918F913F9148
S1130D002F910F900FBE0F901F9018958AB18E7F70
S1130D108AB98AB182608AB91092C00088E9809346
S1130D20C10086E08093C20087E690E09093C500FE
S1130D308093C40008959091C00095FFFCCF8093E8
S1130D40C60008950F931F93CF938C01C0E003C096
S1130D500E949B06CF5FF801EC0FF11D8081811189
S1130D60F7CFCF911F910F9108952091C0029091D8
S1130D70BF0281E0291301C080E008950E94B506F6
S1130D808823C1F0E091BF02F0E0EF53FD4F808172
S1130D902091BF0230E02F5F3F4F2F733078332311
S1130DA034F421503109206C3F6F2F5F3F4F209363
S1130DB0BF02089580E008951F93CF93DF93EC0161
S1130DC0162F59C00E94BE068A3091F08D3009F06A
S1130DD048C00EC08091BF0290E001968F73907856
S1130DE0992324F40197806C9F6F01968093BF022E
S1130DF00E94B506882381F0E091BF02F0E0EF5332
S1130E00FD4F80818A3031F3E091BF02F0E0EF536F
S1130E10FD4F80818D30F1F24091BE0250E0FA0125
S1130E20E258FD4F1082812F90E0019784179507B7
S1130E300CF4AC01342F20E00BC0822F90E0FE01B3
S1130E40E80FF91FDC01A258BD4F8C9180832F5FFE
S1130E50231798F3C40FD11D18821092BE0281E0AB
S1130E6015C0E091BE0291E09E0F9093BE02F0E0A7
S1130E70E258FD4F80830E94B506882329F08091B3
S1130E80BE028F3308F49ECF188280E0DF91CF91A9
S1130E901F9108955058BB27AA270E9462070C94FB
S1130EA0D5080E94C70838F00E94CE0820F039F413
S1130EB09F3F19F426F40C94C4080EF4E095E7FB64
S1130EC00C94BE08E92F0E94E60858F3BA1762078B
S1130ED073078407950720F079F4A6F50C940809A4
S1130EE00EF4E0950B2EBA2FA02D0B01B901900141
S1130EF00C01CA01A0011124FF27591B99F0593F85
S1130F0050F4503E68F11A16F040A22F232F342FCC
S1130F104427585FF3CF469537952795A795F0401A
S1130F205395C9F77EF41F16BA0B620B730B840B2F
S1130F30BAF09150A1F0FF0FBB1F661F771F881FE7
S1130F40C2F70EC0BA0F621F731F841F48F487953F
S1130F5077956795B795F7959E3F08F0B0CF939531
S1130F60880F08F09927EE0F9795879508950E94AA
S1130F709A0808F481E008950E94D0070C94D508DB
S1130F800E94CE0858F00E94C70840F029F45F3F41
S1130F9029F00C94BE0851110C9409090C94C4084E
S1130FA00E94E60868F39923B1F3552391F3951B46
S1130FB0550BBB27AA2762177307840738F09F5F76
S1130FC05F4F220F331F441FAA1FA9F335D00E2EE3
S1130FD03AF0E0E832D091505040E695001CCAF750
S1130FE02BD0FE2F29D0660F771F881FBB1F261713
S1130FF037074807AB07B0E809F0BB0B802DBF01EA
S1131000FF2793585F4F3AF09E3F510578F00C94B8
S1131010BE080C9409095F3FE4F3983ED4F3869527
S113102077956795B795F7959F5FC9F7880F911DD9
S11310309695879597F90895E1E0660F771F881FC5
S1131040BB1F621773078407BA0720F0621B730B78
S1131050840BBA0BEE1F88F7E09508950E94EE0802
S113106088F09F5798F0B92F9927B751B0F0E1F065
S1131070660F771F881F991F1AF0BA95C9F714C015
S1131080B13091F00E940809B1E008950C94080968
S1131090672F782F8827B85F39F0B93FCCF386954E
S11310A077956795B395D9F73EF4909580957095AB
S11310B061957F4F8F4F9F4F0895E89409C097FB28
S11310C03EF490958095709561957F4F8F4F9F4F1B
S11310D09923A9F0F92F96E9BB279395F69587955F
S11310E077956795B795F111F8CFFAF4BB0F11F422
S11310F060FF1BC06F5F7F4F8F4F9F4F16C08823C9
S113110011F096E911C0772321F09EE8872F762FFE
S113111005C0662371F096E8862F70E060E02AF03F
S11311209A95660F771F881FDAF7880F969587952B
S113113097F90895990F0008550FAA0BE0E8FEEF00
S113114016161706E807F907C0F012161306E40787
S1131150F50798F0621B730B840B950B39F40A2680
S113116061F0232B242B252B21F408950A2609F45E
S1131170A140A6958FEF811D811D089597F99F6762
S113118080E870E060E008959FEF80EC089500240B
S11311900A941616170618060906089500240A94D8
S11311A012161306140605060895092E0394000C5E
S11311B011F4882352F0BB0F40F4BF2B11F460FFED
S11311C004C06F5F7F4F8F4F9F4F089557FD905816
S11311D0440F551F59F05F3F71F04795880F97FBF7
S11311E0991F61F09F3F79F08795089512161306B1
S11311F01406551FF2CF4695F1DF08C016161706E0
S11312001806991FF1CF8695710561050894089514
S1131210E894BB2766277727CB0197F908950E94A6
S11312209A0808F48FEF08950E9427090C94D508B2
S11312300E94C70838F00E94CE0820F0952311F0D0
S11312400C94BE080C94C40811240C9409090E943F
S1131250E60870F3959FC1F3950F50E0551F629F08
S1131260F001729FBB27F00DB11D639FAA27F00DFB
S1131270B11DAA1F649F6627B00DA11D661F829F22
S11312802227B00DA11D621F739FB00DA11D621F07
S1131290839FA00D611D221F749F3327A00D611D24
S11312A0231F849F600D211D822F762F6A2F112406
S11312B09F5750409AF0F1F088234AF0EE0FFF1F39
S11312C0BB1F661F771F881F91505040A9F79E3F90
S11312D0510580F00C94BE080C9409095F3FE4F3B7
S11312E0983ED4F3869577956795B795F795E795E6
S11312F09F5FC1F7FE2B880F911D9695879597F9EF
S11313000895FB01DC018D91019080190110D9F33E
S1131310990B0895FB01DC014150504030F08D9150
S11313200190801919F40020B9F7881B990B0895CE
S1071330F894FFCF5B
S11313340000004400000044000000440000004495
S11313440000B4420000B4420000B4420000B442BD
S1131354010000B4420000B4420000B4420000346E
S11313644300000C430000B442000020420000B4D7
S1131374420000B442000034430000B4420000348C
S113138443969696966E65770043617261200020B9
S113139467756172646164612E0D0A006C6F616427
S11313A40020636172676164612E0D0A00646F72C8
S11313B46D69646F00457870726573696F6E3A2065
S11313C4444F524D49444F0D0A00766973636F00CC
S11313D4457870726573696F6E3A20564953434F6A
S11313E40D0A006775696E6F0045787072657369DC
S11313F46F6E3A204755494E4F0D0A000D0A3D3D84
S11314043D20524F5354524F20414E494D41545262
S11314144F4E49434F203D3D3D0D0A000D0A4D4FAB
S1131424444F20313A204D616E75616C0D0A000DF4
S11314340A4D4F444F20323A2047756172646172F9
S11314440D0A000D0A4D4F444F20333A2052657063
S1131454726F64756369720D0A004361726173206B
S10F1464626F7272616461732E0D0A00E5
S9030000FC
